S01F00004F6E2D44656D616E642D547261666669632D6C696768742E73726563A1
S11300000C942A000C947B030C9447000C94470036
S11300100C9447000C9447000C9447000C94470040
S11300200C9447000C9447000C9447000C94470030
S11300300C9447000C9447000C9447000C94470020
S11300400C9447000C9447000C9447000C94470010
S11300500C94470011241FBECFE5D8E0DEBFCDBF0E
S113006010E0A0E6B0E0E4E9FCE002C005900D92E7
S1130070A236B107D9F720E0A2E6B0E001C01D9294
S1130080A436B207E1F70E94D5010C9448060C94FB
S1130090000062E081E40E94BD0161E081E40E940D
S11300A0BD0160E081E40E94BD0162E082E40E943F
S11300B0BD0161E082E40E94BD0160E082E40E942F
S11300C0BD0160E083E40E94BD0162E084E40E941B
S11300D0C9010E94A20362E080E00E94150380E04F
S11300E00E9403030E94FF0261EB71E080E00E9422
S11300F074030895CF93C0E01DC061E081E40E94C1
S1130100C10161E082E40E94C10168EE73E080E015
S113011090E00E94A90361E081E40E94C50161E0CE
S113012082E40E94C50168EE73E080E090E00E94E2
S1130130A903CF5FC53008F3CF910895CF9362E050
S113014081E40E94C50160E081E40E94C50161E090
S113015081E40E94C50162E082E40E94C50161E07D
S113016082E40E94C50160E082E40E94C50162E06D
S113017081E40E94C10160E082E40E94C10182E046
S11301808093600068E873E180E090E00E94A90336
S1130190C1E0C09360000E947A0060E082E40E94A3
S11301A0C50162E081E40E94C50160E081E40E942F
S11301B0C5011092600060E081E40E94C10162E028
S11301C082E40E94C10168E873E180E090E00E944B
S11301D0A903C09360000E947A0060E081E40E9459
S11301E0C50160E082E40E94C10162E082E40E94F1
S11301F0C501CF910895CF9380916000813009F4B7
S11302004DC020F0823009F47AC0A9C060E081E4D6
S11302100E94C10162E082E40E94C10168E873E1C6
S113022080E090E00E94A90360E081E40E94C5019F
S1130230C0E015C061E081E40E94C10164EF71E097
S113024080E090E00E94A90361E081E40E94C5017E
S113025064EF71E080E090E00E94A903CF5FC530B5
S113026048F362E082E40E94C50160E082E40E94F7
S1130270C10162E081E40E94C10168E873E180E0A9
S113028090E00E94A90362E081E40E94C5010E94FB
S11302907A0060E081E40E94C10161C00E947A009A
S11302A062E081E40E94C50160E081E40E94C10132
S11302B060E082E40E94C50162E082E40E94C10120
S11302C068E873E180E090E00E94A9030E947A004C
S11302D060E081E40E94C50162E082E40E94C501FD
S11302E062E081E40E94C10160E082E40E94C101F5
S11302F068E873E180E090E00E94A90330C00E94A6
S11303007A0062E081E40E94C50160E081E40E9419
S1130310C10160E082E40E94C50162E082E40E94BF
S1130320C10168E873E180E090E00E94A9030E94A3
S11303307A0062E082E40E94C50160E082E40E94E7
S1130340C10160E081E40E94C50162E081E40E9491
S1130350C10168E873E180E090E00E94A903CF91B5
S1130360089562E084E40E94CF010197D1F30E94D2
S1130370FB0008950E949E00FDCF41E00E94DA0137
S1130380089541E00E945402089540E00E945402FE
S1130390089540E062E084E40E94DA01089562E096
S11303A084E40E94CE0290E008950E9449000E94D5
S11303B0BA01FDCF823431F118F4813439F0089553
S11303C08334E1F1843409F454C0089541110CC01C
S11303D02AB381E090E002C0880F991F6A95E2F782
S11303E0809582238ABB0895413009F05CC02AB30A
S11303F081E090E002C0880F991F6A95E2F7822B92
S11304008ABB089541110CC027B381E090E002C07B
S1130410880F991F6A95E2F78095822387BB089518
S1130420413009F040C027B381E090E002C0880F5A
S1130430991F6A95E2F7822B87BB089541110CC07E
S113044027B381E090E002C0880F991F6A95E2F714
S11304508095822387BB0895413029F524B381E038
S113046090E002C0880F991F6A95E2F7822B84BB43
S1130470089541110CC021B381E090E002C0880FBF
S1130480991F6A95E2F78095822381BB08954130D4
S113049051F421B381E090E002C0880F991F6A955E
S11304A0E2F7822B81BB0895823431F118F4813450
S11304B039F008958334E1F1843409F454C0089583
S11304C041110CC02BB381E090E002C0880F991F4A
S11304D06A95E2F7809582238BBB0895413009F039
S11304E05CC02BB381E090E002C0880F991F6A952D
S11304F0E2F7822B8BBB089541110CC028B381E035
S113050090E002C0880F991F6A95E2F780958223D4
S113051088BB0895413009F040C028B381E090E0E1
S113052002C0880F991F6A95E2F7822B88BB089551
S113053041110CC025B381E090E002C0880F991FDF
S11305406A95E2F78095822385BB0895413029F5A9
S113055025B381E090E002C0880F991F6A95E2F705
S1130560822B85BB089541110CC022B381E090E039
S113057002C0880F991F6A95E2F78095822382BB97
S11305800895413051F422B381E090E002C0880F15
S1130590991F6A95E2F7822B82BB0895823491F009
S11305A018F4813431F029C08334A9F08434E1F0A3
S11305B024C089B390E002C0959587956A95E2F7C7
S11305C08170089586B390E002C0959587956A95E9
S11305D0E2F78170089583B390E002C09595879502
S11305E06A95E2F78170089580B390E002C0959512
S11305F087956A95E2F78170089580E008958FB732
S113060080688FBF0895813041F018F0823049F03E
S113061008958BB780648BBF08958BB780688BBFB8
S113062008958BB780628BBF0895813049F120F023
S1130630823009F449C00895613069F028F06230CD
S1130640C1F0633079F0089585B78E7F85BF85B793
S11306508D7F85BF089585B7816085BF85B78D7F00
S113066085BF089585B78E7F85BF85B7826085BFB6
S1130670089585B7816085BF85B7826085BF089579
S1130680613069F028F06230C1F0633079F0089588
S113069085B78B7F85BF85B7877F85BF089585B76D
S11306A0846085BF85B7877F85BF089585B78B7FB5
S11306B085BF85B7886085BF089585B7846085BF89
S11306C085B7886085BF0895623031F0633041F4A6
S11306D085B78F7B85BF089585B7806485BF0895EE
S11306E085B7806485BF0895811104C07093630049
S11306F06093620008951F920F920FB60F92112417
S11307002F933F934F935F936F937F938F939F9315
S1130710AF93BF93EF93FF93E0916200F091630076
S11307200995FF91EF91BF91AF919F918F917F9127
S11307306F915F914F913F912F910F900FBE0F904A
S11307401F90189583B7877F83BF83B78F7B83BF41
S113075008958F929F92AF92BF92CF92DF92EF92C1
S1130760FF92CF93DF934B015C010E9455056B010F
S11307707C012FE632E143E853E40E94AF0488236E
S11307809CF4A70196016FE672E183E893E40E946A
S11307902B042FE632E143E85FE30E94B4040E9495
S11307A02605C1E0D0E036C086E0881681E09806D0
S11307B0A104B10461F12FE632E143E853E4C70137
S11307C0B6010E94B4040E94260580E090E00E94D5
S11307D055050E9498040E942605EB01A701960185
S11307E06FE672E183E893E40E942B042FE632E182
S11307F043E85FE30E94B4049B01AC0160E070E055
S113080080E893E40E942B040E94260503C060E064
S1130810C1E0D0E062BF83B7816083BF83B78460E7
S113082083BF20E030E008C008B600FEFDCF88B7E3
S1130830816088BF2F5F3F4FC217D307A9F713BE4C
S1130840DF91CF91FF90EF90DF90CF90BF90AF906A
S11308509F908F9008955058BB27AA270E94430465
S11308600C94F6050E94E80538F00E94EF0520F08C
S113087039F49F3F19F426F40C94E5050EF4E09541
S1130880E7FB0C94B605E92F0E94070658F3BA1744
S1130890620773078407950720F079F4A6F50C9492
S11308A041060EF4E0950B2EBA2FA02D0B01B901D1
S11308B090010C01CA01A0011124FF27591B99F0D2
S11308C0593F50F4503E68F11A16F040A22F232FDE
S11308D0342F4427585FF3CF469537952795A7952E
S11308E0F0405395C9F77EF41F16BA0B620B730BD5
S11308F0840BBAF09150A1F0FF0FBB1F661F771F46
S1130900881FC2F70EC0BA0F621F731F841F48F4FA
S1130910879577956795B795F7959E3F08F0B0CF83
S11309209395880F08F09927EE0F9795879508956A
S11309300E94290690F09F3748F4911116F40C9404
S1130940420660E070E080E89FE3089526F01B16FD
S1130950611D711D811D0C94BC050C94D7050E946A
S1130960920508F481E008950E94C8040C94F605E9
S11309700E94EF0558F00E94E80540F029F45F3F1B
S113098029F00C94B60551110C9442060C94E5051B
S11309900E94070668F39923B1F3552391F3951B3D
S11309A0550BBB27AA2762177307840738F09F5F8C
S11309B05F4F220F331F441FAA1FA9F335D00E2EF9
S11309C03AF0E0E832D091505040E695001CCAF766
S11309D02BD0FE2F29D0660F771F881FBB1F261729
S11309E037074807AB07B0E809F0BB0B802DBF0100
S11309F0FF2793585F4F3AF09E3F510578F00C94CF
S1130A00B6050C9442065F3FE4F3983ED4F3869512
S1130A1077956795B795F7959F5FC9F7880F911DEF
S1130A209695879597F90895E1E0660F771F881FDB
S1130A30BB1F621773078407BA0720F0621B730B8E
S1130A40840BBA0BEE1F88F7E09508950E940F06F9
S1130A5088F09F5798F0B92F9927B751B0F0E1F07B
S1130A60660F771F881F991F1AF0BA95C9F714C02B
S1130A70B13091F00E944106B1E008950C94410612
S1130A80672F782F8827B85F39F0B93FCCF3869564
S1130A9077956795B395D9F73EF4909580957095C1
S1130AA061957F4F8F4F9F4F0895E89409C097FB3E
S1130AB03EF490958095709561957F4F8F4F9F4F31
S1130AC09923A9F0F92F96E9BB279395F695879575
S1130AD077956795B795F111F8CFFAF4BB0F11F438
S1130AE060FF1BC06F5F7F4F8F4F9F4F16C08823DF
S1130AF011F096E911C0772321F09EE8872F762F15
S1130B0005C0662371F096E8862F70E060E02AF055
S1130B109A95660F771F881FDAF7880F9695879541
S1130B2097F90895990F0008550FAA0BE0E8FEEF16
S1130B3016161706E807F907C0F012161306E4079D
S1130B40F50798F0621B730B840B950B39F40A2696
S1130B5061F0232B242B252B21F408950A2609F474
S1130B60A140A6958FEF811D811D089597F99F6778
S1130B7080E870E060E00895882371F4772321F021
S1130B809850872B762F07C0662311F499270DC040
S1130B909051862B70E060E02AF09A95660F771FDB
S1130BA0881FDAF7880F9695879597F908959F3FE0
S1130BB031F0915020F4879577956795B795880F14
S1130BC0911D9695879597F908959FEF80EC089568
S1130BD000240A9416161706180609060895002418
S1130BE00A9412161306140605060895092E039492
S1130BF0000C11F4882352F0BB0F40F4BF2B11F406
S1130C0060FF04C06F5F7F4F8F4F9F4F089557FD64
S1130C109058440F551F59F05F3F71F04795880F66
S1130C2097FB991F61F09F3F79F0879508951216FD
S1130C3013061406551FF2CF4695F1DF08C01616A9
S1130C4017061806991FF1CF86957105610508945A
S1130C5008950E940F06A0F0BEE7B91788F4BB27D9
S1130C609F3860F41616B11D672F782F8827985F78
S1130C70F7CF869577956795B11D93959639C8F307
S1130C800895E894BB2766277727CB0197F9089541
S1070C90F894FFCF02
S1050C94020058
S9030000FC
